:020000040800F2
:1000000000000320354B0008290600082B060008D5
:100010002D0600082F060008310600080000000029
:10002000000000000000000000000000C1470008C0
:1000300033060008000000006148000887440008FB
:100040008D4B00088D4B00088D4B00088D4B000830
:100050008D4B00088D4B00088D4B00088D4B000820
:100060008D4B00088D4B00088D4B00088D4B000810
:100070008D4B00088D4B00088D4B00088D4B000800
:100080008D4B00088D4B00088D4B00088D4B0008F0
:100090008D4B00088D4B00088D4B00088D4B0008E0
:1000A0008D4B0008350600088D4B00088D4B00086D
:1000B0008D4B00088D4B00088D4B00088D4B0008C0
:1000C0008D4B00088D4B00088D4B00088D4B0008B0
:1000D0008D4B00088D4B00088D4B00088D4B0008A0
:1000E0008D4B00088D4B00088D4B00088D4B000890
:1000F0008D4B00088D4B0008590600088D4B0008F9
:100100008D4B00088D4B00088D4B00088D4B00086F
:100110008D4B00088D4B00088D4B00088D4B00085F
:100120008D4B00088D4B00088D4B00088D4B00084F
:0C0130008D4B00088D4B00088D4B000823
:1001400053B94AB9002908BF00281CBF4FF0FF313E
:100150004FF0FF3000F00CB8ADF1080C6DE904CEA3
:1001600004F050FDDDF804E0DDE9022304B070473F
:10017000704700BF0348044B834202D0034B03B1D6
:1001800018477047180000201800002000000000E9
:100190000548064B1B1AD90F01EBA301491002D0E9
:1001A000034B03B1184770471800002018000020C7
:1001B0000000000010B5064C237843B9FFF7DAFFC2
:1001C000044B13B10448AFF300800123237010BD2A
:1001D0001800002000000000FC4E000808B5054B88
:1001E0001BB105490548AFF30080BDE80840FFF7A3
:1001F000CFBF00BF000000001C000020FC4E000824
:100200002DE9F0418AB005AD0024059406940794C9
:10021000089409944FF0B043DA6C42F00402DA64B7
:10022000DA6C02F004020492049ADA6C42F00202E0
:10023000DA64DA6C02F002020392039ADA6C42F09A
:100240000102DA64DA6C02F001020292029ADA6CBC
:1002500042F01002DA64DB6C03F010030193019B9F
:10026000DFF8588022461021404602F0CBF8124EAB
:1002700022463021304602F0C5F8102305930127AD
:100280000697079408942946404601F0E1FF0823A9
:100290000593069407942946304601F0D9FF302390
:1002A00005930697079408942946304601F0D0FF3D
:1002B0000AB0BDE8F08100BF00040048001000480B
:1002C00008B52021034802F0A2F84FF4FA7003F0B9
:1002D00017FDF6E70004004808B50268034B9A4290
:1002E00000D008BD02F03AF9FBE700BF004401402E
:1002F00072B6FEE708B50448044B036002F020FA2A
:1003000000B908BDFFF7F4FFC4010020000C00583D
:1003100008B51148114B0360114B43600023836003
:100320000122C260036143618361C361036202F021
:100330002DF950B90021084802F08CF938B9002194
:10034000054802F0B4F920B908BDFFF7D1FFFFF767
:10035000CFFFFFF7CDFF00BF000200200054004098
:10036000B47CB00008B50F480F4B03604FF48273A4
:100370004360002383604FF44072C26003614361B5
:100380004FF400728261C361036243628362072299
:10039000C26203630823436302F0F0F900B908BDA9
:1003A000FFF7A6FF600100200030014010B598B0B3
:1003B00000241594169417940E940F94109411948D
:1003C0001294139414943422214601A804F0DFFB04
:1003D0003248334B0360446084604FF6FF73C36060
:1003E00004614461846100F04BFD002847D1002383
:1003F00015931693179315A9284800F049FE002875
:100400003FD160230E9300220F921092119212920C
:10041000139214920EA9214800F09CFD002832D1BD
:1004200004220EA91D4800F095FD00282DD10822B8
:100430000EA91A4800F08EFD48BB0C220EA91748E1
:1004400000F088FD28BB00230193029303930493DB
:1004500005934FF4005206920793089309934FF0C7
:1004600000720A920B930C930D9301A90B4800F0B4
:1004700043FE80B9094800F0CDF918B010BDFFF770
:1004800037FFFFF735FFFFF733FFFFF731FFFFF7C8
:100490002FFFFFF72DFFFFF72BFF00BF14010020F8
:1004A000002C014000B58BB00023079308930993FB
:1004B00000930193029303930493059306932248B8
:1004C0004FF080420260436083604FF0FF32C260B1
:1004D0000361836100F0D4FC50BB002307930993B0
:1004E00007A9194800F0D4FD20BB60230093002227
:1004F0000192029204926946134800F02BFDD8B98C
:1005000004226946104800F025FDB8B90822694662
:100510000D4800F01FFD98B90C2269460A4800F00A
:1005200019FD78B9084800F075F90BB05DF804FBC7
:10053000FFF7DEFEFFF7DCFEFFF7DAFEFFF7D8FE7F
:10054000FFF7D6FEFFF7D4FEC800002008B5154817
:10055000154B03604FF4E133436000238360C360B5
:1005600003610C2242618361C3610362436283625F
:1005700002F0E1FB70B900210A4802F054FC58B9BE
:100580000021084802F074FC40B9064802F02CFC37
:1005900030B908BDFFF7ACFEFFF7AAFEFFF7A8FED3
:1005A000FFF7A6FE340000200038014010B594B0DB
:1005B00050220021684604F0EAFA4FF440530093B9
:1005C0004FF44043119310231393684601F0C7FC86
:1005D00008B914B010BDFFF78BFE000000B583B062
:1005E00001F0A6FF04F052FAFFF7E0FFFFF782FEEA
:1005F000FFF706FEFFF78CFEFFF7B4FEFFF7D6FE0F
:10060000FFF750FFFFF7A2FF0023019301220092A2
:1006100080220349034803F0DEF903F00FFAFEE7F6
:10062000404F0008C1020008FEE7FEE7FEE7FEE7D4
:10063000FEE7704708B5064B1B6813B1044800F08D
:10064000F5FA044B1B6813B1024800F0EFFA08BD3D
:10065000140100205402002008B501F0E3FE08BD9B
:1006600000B583B04FF0B0431A6D42F400221A6512
:100670001B6D03F400230193019B00220F216FF0F7
:10068000010001F041FF002205212E2001F03CFF76
:100690002E2001F049FF03B05DF804FB10B59CB0BB
:1006A000044600211791189119911A911B9150221B
:1006B00003A804F06CFA2268194B9A4201D01CB0CE
:1006C00010BD042303934FF440330B9303A801F0B0
:1006D00046FC10BB4FF0B044E36C43F00203E3640C
:1006E000E36C03F002030293029B4FF440731793F1
:1006F00012231893002319931A9304231B9317A909
:10070000084801F0A5FDA36D43F40013A365A36D94
:1007100003F400130193019BD1E7FFF7E9FDD9E74B
:1007200000540040000400480268094B9A4200D07F
:10073000704782B04FF0B0431A6D42F480121A65D0
:100740001B6D03F480130193019B02B0704700BF3F
:10075000000C005800B589B000230393049305935F
:10076000069307930268134B9A4202D009B05DF8D2
:1007700004FB4FF0B0431A6E42F480521A661A6EB0
:1007800002F480520292029ADA6C42F00102DA64B8
:10079000DB6C03F001030193019BE023039302232D
:1007A00004930523079303A94FF0904001F050FDF7
:1007B000DCE700BF0030014000B583B00368144A95
:1007C000934205D0B3F1804F16D003B05DF804FB1F
:1007D0004FF0B0431A6E42F400621A661B6E03F4C7
:1007E00000630093009B00220F21192001F08CFE72
:1007F000192001F099FEE8E74FF0B0439A6D42F0FE
:1008000001029A659B6D03F001030193019BDCE7F4
:10081000002C014000B589B0002303930493059395
:100820000693079303681C4A934205D0B3F1804FA7
:100830001AD009B05DF804FB4FF0B043DA6C42F017
:100840000102DA64DB6C03F001030193019B4FF4B6
:1008500070630393022304930123079303A94FF0CA
:10086000904001F0F5FCE4E74FF0B043DA6C42F061
:100870000102DA64DB6C03F001030293029B0F2395
:100880000393022304930123079303A94FF090409D
:1008900001F0DEFCCDE700BF002C014010B59CB09C
:1008A000044600211791189119911A911B91502219
:1008B00003A804F06CF92268174B9A4201D01CB0CF
:1008C00010BD0123039303A801F049FB08BB4FF0BF
:1008D000B0431A6E42F480421A661A6E02F48042E5
:1008E0000292029ADA6C42F00202DA64DB6C03F0E4
:1008F00002030193019BC023179302231893002343
:1009000019931A9307231B9317A9044801F0A0FC1D
:10091000D5E7FFF7EDFCDAE70038014000040048B6
:1009200030B58BB0044600220146192001F0ECFDE1
:10093000192001F0F9FD4FF0B0431A6E42F4003275
:100940001A661B6E03F400330193019B02A903A8EE
:1009500001F0FAF901F0E6F9154AA2FB00239B0C1D
:10096000013B1448144A026040F2E732C26043601F
:1009700000230361836000F053FA054610B1284656
:100980000BB030BD0B4800F01BF905460028F6D12E
:10099000192001F0C9FD0F2C01D90125EFE7002234
:1009A0002146192001F0B0FD044B1C60E7E700BFB1
:1009B00083DE1B4354020020004401400C00002051
:1009C00030B4026A036A23F0010303624468836956
:1009D00023F4803323F073030D681D4322F00202D9
:1009E0008B681343144A904207D002F5E0529042BC
:1009F00003D0A2F58062904205D123F00803CA68B3
:100A00001A4322F004030C4A904207D002F5C05268
:100A1000904203D002F58062904205D124F44074E4
:100A20004A6922438C691443446085614A68426381
:100A3000036230BC704700BF002C014030B4036A31
:100A4000026A22F4807202624468C26922F480322F
:100A500022F073020D68154323F400738A6843EA99
:100A60000223104A904207D00F4A90420BD002F561
:100A7000806290420FD106E023F40063CA6843EA23
:100A8000022323F4806324F440544A6944EA0214A4
:100A90008A6944EA02144460C5614A68C263036219
:100AA00030BC7047002C01400044014030B4026A61
:100AB000036A23F4805303624468C36923F080739C
:100AC00023F4E6430D6843EA052322F400528D68BF
:100AD00042EA05320B4DA84207D005F5C055A842A1
:100AE00003D005F58065A84204D124F480444D6903
:100AF00044EA85144460C3614B680364026230BCFD
:100B0000704700BF002C014030B4036A026A22F42F
:100B1000803202624468426D22F4803222F0700218
:100B20000D682A4323F400338D6843EA05430B4DD7
:100B3000A84207D005F5C055A84203D005F5806549
:100B4000A84204D124F480344D6944EA0524446069
:100B500042654A688265036230BC7047002C0140E0
:100B600030B4026A036A23F4801303624468436D5D
:100B700023F0807323F4E0430D6843EA052322F455
:100B800000128D6842EA05520B4DA84207D005F5C8
:100B9000C055A84203D005F58065A84204D124F4CD
:100BA00080244D6944EA8524446043654B68C365ED
:100BB000026230BC704700BF002C0140704700004B
:100BC00090F83D30012B22D1022380F83D3002689D
:100BD000D36843F00103D3600368104A934208D0FE
:100BE000B3F1804F05D01A6842F001021A6000206C
:100BF000704799680A4A0A40062A0AD0B2F5803F2F
:100C000009D01A6842F001021A60002070470120E2
:100C10007047002070470020704700BF002C014043
:100C200007000100704770477047704770B5044671
:100C30000368DE681D6915F0020F10D016F0020F70
:100C40000DD06FF002021A610123037703689B69DC
:100C500013F0030F64D0FFF7E6FF0023237715F0AE
:100C6000040F12D016F0040F0FD023686FF00402A7
:100C70001A610223237723689B6913F4407F55D0C0
:100C80002046FFF7D0FF0023237715F0080F12D07E
:100C900016F0080F0FD023686FF008021A610423C2
:100CA00023772368DB6913F0030F46D02046FFF754
:100CB000BAFF0023237715F0100F12D016F0100F93
:100CC0000FD023686FF010021A610823237723687E
:100CD000DB6913F4407F37D02046FFF7A4FF0023E1
:100CE000237715F0010F02D016F0010F33D115F460
:100CF000025F02D016F0800F35D115F4807F02D04C
:100D000016F0800F37D115F0400F02D016F0400FCB
:100D100039D115F0200F02D016F0200F3BD170BD55
:100D2000FFF780FF2046FFF77FFF96E72046FFF79B
:100D300079FF2046FFF778FFA5E72046FFF772FF0F
:100D40002046FFF771FFB4E72046FFF76BFF204610
:100D5000FFF76AFFC3E723686FF001021A612046BC
:100D6000FFF7BAFAC3E723686FF402521A6120460C
:100D700000F00FFAC1E723686FF480721A61204611
:100D800000F008FABFE723686FF040021A612046BE
:100D9000FFF74BFFBDE723686FF020021A61204682
:100DA00000F0F6F9BBE7000003681C4A904202D04D
:100DB000B0F1804F03D123F070034A681343174A00
:100DC00090420AD0B0F1804F07D002F5C052904255
:100DD00003D002F58062904203D123F44073CA68C5
:100DE000134323F080034A6913438A68C2620A6886
:100DF00082620A4A904207D002F5C052904203D064
:100E000002F58062904201D10A690263026842F0F1
:100E1000040202600122426103607047002C01401D
:100E200060B310B5044690F83D3013B3022384F844
:100E30003D30214651F8040BFFF7B6FF012384F83B
:100E4000483084F83E3084F83F3084F8403084F8ED
:100E5000413084F8423084F8433084F8443084F8D8
:100E6000453084F8463084F8473084F83D3000201F
:100E700010BD80F83C30FFF7A1FED7E70120704796
:100E800060B310B5044690F83D3013B3022384F8E4
:100E90003D30214651F8040BFFF786FF012384F80B
:100EA000483084F83E3084F83F3084F8403084F88D
:100EB000413084F8423084F8433084F8443084F878
:100EC000453084F8463084F8473084F83D300020BF
:100ED00010BD80F83C30FFF76FFCD7E7012070476A
:100EE00030B4036A026A22F0100202624468826926
:100EF00022F0807222F4E6420D6842EA052223F0D5
:100F000020038D6843EA0513104DA84207D0104D09
:100F1000A8420BD005F58065A8420FD106E023F06A
:100F20008003CD6843EA051323F0400324F44064B2
:100F30004D6944EA85048D6944EA85044460826110
:100F40004A688263036230BC704700BF002C0140D6
:100F50000044014038B590F83C30012B00F09580FA
:100F600004460D46012380F83C30142A00F28880A4
:100F7000DFE802F00B8686861F86868634868686A4
:100F8000488686865D86868671000068FFF718FDB4
:100F90002268936943F0080393612268936923F000
:100FA000040393612268936929690B4393610020CC
:100FB00067E00068FFF794FF2268936943F40063D9
:100FC00093612268936923F4806393612268936933
:100FD000296943EA01239361002052E00068FFF78A
:100FE0002DFD2268D36943F00803D3612268D369D9
:100FF00023F00403D3612268D36929690B43D361C9
:1010000000203EE00068FFF751FD2268D36943F4F9
:101010000063D3612268D36923F48063D3612268BB
:10102000D369296943EA0123D361002029E00068DC
:10103000FFF76AFD2268536D43F008035365226889
:10104000536D23F0040353652268536D29690B43E4
:101050005365002015E00068FFF782FD2268536D9C
:1010600043F4006353652268536D23F48063536532
:101070002268536D296943EA01235365002000E08B
:101080000120002384F83C3038BD0220FCE700003A
:1010900090F83C20012A2BD030B40346012280F87E
:1010A0003C20022280F83D20006842688468114D8F
:1010B000A84218D022F070020D682A4342601A68D4
:1010C0000C48824202D0B2F1804F04D124F0800457
:1010D000896821439160012283F83D20002083F834
:1010E0003C0030BC704722F470024D682A43E1E7AF
:1010F00002207047002C014090F83C30012B43D077
:1011000010B40246012380F83C30CB6823F44073CE
:101110008868034323F480634868034323F400632F
:101120000868034323F480530869034323F40053FE
:101130004869034323F48043086B034323F470237B
:10114000886943EA004323F08053C8690343106869
:101150000E4CA04206D04364002082F83C005DF8AB
:10116000044B704723F470038C6A43EA045323F062
:1011700080730C6A234323F000734C6A234323F0EB
:101180000053C96A0B43E6E702207047002C014078
:10119000704770477047000030B58DB005468E46E9
:1011A0002B4C94E80F000DF1300C0CE90F0005AB4F
:1011B00004F1100207CA83E807000DF1040C1C3487
:1011C00094E80F008CE80F00BEF5007F07D00023E5
:1011D00014E00CAA02EB830353F82C5C1EE00023FE
:1011E000032B08D80CAA02EB830252F8102CAA4257
:1011F000EFD20133F4E7002510E00133022B0CD8C5
:101200000CAA02EB830252F81C2CAA42F5D30CAABA
:1012100002EB830353F82C5C00E000250D4A1368B1
:1012200023F007032B43136001F0A4F90446094B94
:101230001B6803F00703AB4206D001F09BF9001BCB
:101240000228F4D9032000E000200DB030BD00BF1B
:10125000144F00080040005810B5B02816D90E4BA6
:10126000DC6A4FF0B043D3F8083103F00F030B4AA8
:1012700052F82330B4FBF3F401F0EAF80146084BCE
:10128000A3FB0434A00CFFF787FF10BDC0F30310CD
:10129000014B53F82040E4E7884F0008E84F00086E
:1012A00083DE1B434FF0B0439B6813F00C030DD15A
:1012B0004FF0B0431B6803F0F003B02B04D81B09B8
:1012C000254A52F823007047B023F8E7042B3ED09C
:1012D000082B10D04FF0B043DB6803F00303022B60
:1012E00031D0032B0FD14FF0B0431B6813F4801F94
:1012F0002BD11A4812E04FF0B0431B6813F4801F43
:1013000027D0174870474FF0B0431B6803F0F00335
:10131000B02B16D81B09104A52F823004FF0B042E8
:10132000D368C3F3062303FB00F0D368C3F30213AF
:101330000133B0FBF3F0D3685B0F0133B0FBF3F084
:101340007047B023E6E70648E8E70548E6E70448C3
:1013500070470248704700BF884F00080048E80106
:101360000024F40008B5FFF79DFF4FF0B0439B68E1
:10137000C3F30313024A52F82330B0FBF3F008BD65
:10138000E84F0008002800F0728338B5044603686F
:1013900013F0200F2DD04FF0B0429368D26802F0C6
:1013A000030213F00C0358D00C2B54D0E369002B2C
:1013B00000F0A0804FF0B042136843F001031360C7
:1013C00001F0D8F805464FF0B0431B6813F0020F48
:1013D00000F08880636A4FF0B042116821F0F0019C
:1013E0000B431360216A536823F47F4343EA0123CC
:1013F0005360236813F0010F00F09A804FF0B04261
:10140000936803F00C03D26802F00302082B00F08B
:101410008B800C2B00F085806368B3F5803F00F073
:10142000B0804FF0B042136823F4803313606368D8
:10143000002B00F0AD8001F09DF805464FF0B04361
:101440001B6813F4003F73D101F094F8401B64282B
:10145000F4D9032016E3012AA8D1E369002B00F098
:101460000883606A4FF0B0431B6803F0F003B02BB1
:1014700021D8984221D9FFF7EFFE002840F0FB82E7
:10148000636A4FF0B042116821F0F0010B43136022
:10149000216A536823F47F4343EA01235360FFF733
:1014A00061FFBF4B1860BF4B1868FFF739FA00287F
:1014B0009FD00120E6E2B023DBE74FF0B042136893
:1014C00023F0F00318431060216A536823F47F432C
:1014D00043EA01235360606AFFF7BEFE0028DED0B6
:1014E0000120CFE201F046F8401B02287FF66BAFE7
:1014F0000320C7E24FF0B042136823F001031360EA
:1015000001F038F805464FF0B0431B6813F0020FA6
:101510003FF46FAF01F02EF8401B0228F3D90320EF
:10152000B0E2032A7FF478AF6368002B00F0A58255
:10153000236813F0020F54D04FF0B042936803F0C9
:101540000C03D26802F00302042B33D00C2B2FD0F3
:10155000E368002B71D04FF0B042136843F48073FE
:10156000136001F007F805464FF0B0431B6813F411
:10157000806F2DD100F0FEFF401B0228F4D903201C
:1015800080E24FF0B042136843F4803313604EE7BB
:1015900000F0F0FF05464FF0B0431B6813F4003F26
:1015A000C6D000F0E7FF401B6428F4D9032069E2AD
:1015B000022ACDD1E368002B00F0618221694FF04F
:1015C000B042536823F0FE4343EA0163536008E0EE
:1015D00021694FF0B042536823F0FE4343EA0163B0
:1015E0005360236813F0180F00F0DE806269002A50
:1015F00000F0A38013F0100F70D04FF0B043D3F879
:10160000943013F0020F2ED14FF0B042D2F8943044
:1016100043F00103C2F8943000F0ACFF05464FF0F0
:10162000B043D3F8943013F0020F1CD100F0A2FFA6
:10163000401B0228F3D9032024E24FF0B042136884
:1016400023F48073136000F095FF05464FF0B0431C
:101650001B6813F4806FC4D000F08CFF401B02287D
:10166000F4D903200EE24FF0B042D2F8943043F0A8
:101670000403C2F8943000F07DFF05464FF0B043FC
:10168000D3F8943013F0080F06D100F073FF401B1D
:101690000328F3D90320F5E1A1694FF0B042D2F855
:1016A000943023F4706343EA0123C2F89430D2F8F3
:1016B000943023F00103C2F8943000F05BFF05463C
:1016C0004FF0B043D3F8943013F0020F6CD000F019
:1016D00051FF401B0228F3D90320D3E14FF0B04261
:1016E000D2F8943043F00103C2F8943000F042FF86
:1016F00005464FF0B043D3F8943013F0020F06D1F3
:1017000000F038FF401B0228F3D90320BAE14FF064
:10171000B042D2F8943023F00403C2F894304FF072
:10172000B043D3F8943013F0080F3DD000F022FFFF
:10173000401B0328F3D90320A4E14FF0B042D2F8B4
:10174000943023F00403C2F8943000F013FF0546F0
:101750004FF0B043D3F8943013F0080F18D14FF086
:10176000B042D2F8943023F00103C2F8943000F074
:1017700001FF05464FF0B043D3F8943013F0020F49
:1017800012D000F0F7FE401B0228F3D9032079E1C4
:1017900000F0F0FE401B0328DAD9032072E100BFFD
:1017A000100000200C000020236813F0040F68D004
:1017B000B74B1B6813F4807F27D0A368012B35D06B
:1017C000052B3CD04FF0B043D3F8902022F001021B
:1017D000C3F89020D3F8902022F00402C3F89020A0
:1017E000A368DBB300F0C6FE05464FF0B043D3F864
:1017F000903013F0020F44D100F0BCFE401B41F2C8
:1018000088339842F1D903203CE100F019FE00F042
:10181000B1FE05469E4B1B6813F4807FCDD100F0CE
:10182000A9FE401B0228F5D903202BE14FF0B0425E
:10183000D2F8903043F00103C2F89030D0E74FF077
:10184000B043D3F8902042F00402C3F89020D3F8BC
:10185000902042F00102C3F89020C1E700F08AFE18
:1018600005464FF0B043D3F8903013F0020F08D084
:1018700000F080FE401B41F288339842F1D90320EA
:1018800000E1236813F0400F33D0A36AC3B14FF0D7
:10189000B042D2F8983043F00103C2F8983000F01B
:1018A00069FE05464FF0B043D3F8983013F0020FAD
:1018B0001FD100F05FFE401B0228F3D90320E1E0B6
:1018C0004FF0B042D2F8983023F00103C2F89830BC
:1018D00000F050FE05464FF0B043D3F8983013F0B7
:1018E000020F06D000F046FE401B0228F3D9032069
:1018F000C8E0E36A002B00F0C4804FF0B04291686A
:1019000001F00C01D268022B19D00C2900F0BD8027
:101910004FF0B042136823F08073136000F02AFE8A
:1019200004464FF0B0431B6813F0007F00F097802F
:1019300000F020FE001B0228F3D90320A2E002F0F1
:101940000303206B83420AD00C2900F09C804FF0E7
:10195000B0431B6813F0806F22D0012092E002F0A8
:101960007003606B8342EFD1C2F30623A06B834206
:10197000EAD102F47813E06B8342E5D102F06063B0
:10198000206C8342E0D102F06042636C9A42DBD16A
:101990004FF0B0431B6813F0007F44D0002071E08B
:1019A0004FF0B042136823F08073136000F0E2FD43
:1019B00005464FF0B0431B6813F0007F06D000F0DF
:1019C000D9FD401B0228F4D903205BE04FF0B04260
:1019D000D36830491940236B606B0343A06B43EA23
:1019E0000023E06B0343206C0343606C0343194303
:1019F000D160136843F080731360D36843F0805361
:101A0000D36000F0B7FD04464FF0B0431B6813F0FD
:101A1000007F06D100F0AEFD001B0228F4D90320A0
:101A200030E000202EE04FF0B0431A6842F08072A0
:101A30001A60DA6842F08052DA6000F09BFD0446DA
:101A40004FF0B0431B6813F0007F06D100F092FD09
:101A5000031B022BF4D9032014E0002012E04FF006
:101A6000B042D1680C4B0B40D36000200AE001204B
:101A70007047012006E0012004E0012002E001207F
:101A800000E0002038BD0120FCE70120FAE700BF9C
:101A9000000400588C80C111FCFFFEEE002800F00D
:101AA000278170B50C460546934B1B6803F007036E
:101AB0008B422DD32B6813F0020F3FD12B6813F00C
:101AC000200F53D12B6813F0400F6AD12B6813F00D
:101AD000040F40F083802B6813F0080F40F09780CC
:101AE0002B6813F0010F00F0DE806B68022B00F012
:101AF000A880032B00F0AD80002B40F0B2804FF0A7
:101B0000B042126812F0020F40F0B1800120EEE006
:101B1000794A136823F007030B43136000F02AFD92
:101B20000646754B1B6803F00703A342C2D000F0C2
:101B300021FD801B0228F4D90320D8E0AB684FF0C8
:101B4000B0418A6822F0F00213438B6000F012FD6E
:101B500006464FF0B0439B6813F4803FAED100F0CF
:101B600009FD801B0228F4D90320C0E06B694FF007
:101B7000B041D1F8082122F0F0021343C1F8083136
:101B800000F0F8FC06464FF0B043D3F8083113F4E8
:101B9000003F97D100F0EEFC801B0228F3D9032010
:101BA000A5E0A9694FF0B042D2F8083123F00F0345
:101BB00043EA1113C2F8083100F0DCFC06464FF08E
:101BC000B043D3F8083113F4803F7FF47FAF00F0C7
:101BD000D1FC801B0228F2D9032088E0EB684FF08B
:101BE000B0418A6822F4E06213438B6000F0C2FCCB
:101BF00006464FF0B0439B6813F4003F7FF46BAF91
:101C000000F0B8FC801B0228F3D903206FE029699B
:101C10004FF0B042936823F4605343EAC1039360EA
:101C200000F0A8FC06464FF0B0439B6813F4802FE9
:101C30007FF456AF00F09EFC801B0228F3D90320EE
:101C400055E04FF0B042126812F4003F0FD101206E
:101C50004DE04FF0B042126812F0007F07D1012032
:101C600045E04FF0B042126812F4806F42D04FF05E
:101C7000B0418A6822F0030213438B6000F07AFCC3
:101C800006464FF0B0439B6803F00C036A68B3EB61
:101C9000820F08D000F06EFC801B41F2883398421E
:101CA000EFD9032023E0144B1B6803F00703A34282
:101CB00015D9114A136823F007032343136000F07A
:101CC00059FC05460C4B1B6803F00703A34206D0E2
:101CD00000F050FC401B0228F4D9032007E0FFF776
:101CE00041FB064B186000F04BFCFEF719FE70BD7F
:101CF000012070470120FAE7004000581000002042
:101D000008B5FFF72FFB4FF0B0439B68C3F30223E6
:101D1000034A52F8233003F01F03D84008BD00BF28
:101D2000C84F000808B5FFF71DFB4FF0B0439B6894
:101D3000C3F3C223034A52F8233003F01F03D840F1
:101D400008BD00BFC84F00086F2303604FF0B043C9
:101D50009A6802F00C0242609A6802F0F002826017
:101D60009A6802F4E062C2609A6802F4605202610A
:101D7000D3F8082102F0F0024261D3F808311B01C8
:101D8000DBB28361024B1B6803F007030B607047F3
:101D9000004000584FF0B041D1F88830020902F4F9
:101DA0007F2223EA0203000100F47F200343C1F8ED
:101DB0008830704770B505464FF0B042136823F085
:101DC0008063136000F0D6FB04464FF0B0431B68FD
:101DD00013F0006F06D000F0CDFB001B0228F4D9F1
:101DE000032400E000240CB1204670BD4FF0B04346
:101DF0001A6922F4FE42296842EA01221A611A692C
:101E000022F4781269680A431A611A6842F0806203
:101E10001A6000F0AFFB06464FF0B0431B6813F0AA
:101E2000006F05D100F0A6FB801B0228F4D9032423
:101E3000002CD9D14FF0B042136929690B431361CB
:101E4000D2E770B505464FF0B042136823F08063C7
:101E5000136000F08FFB04464FF0B0431B6813F093
:101E6000006F06D000F086FB001B0228F4D9032483
:101E700000E000240CB1204670BD4FF0B0431A6959
:101E800022F4FE42296842EA01221A611A6922F00C
:101E90006062A9680A431A611A6842F080621A6097
:101EA00000F068FB06464FF0B0431B6813F0006F6C
:101EB00005D100F05FFB801B0228F4D90324002C1D
:101EC000D9D14FF0B042136929690B431361D2E7AE
:101ED00070B505464FF0B042136823F0806313607D
:101EE00000F048FB04464FF0B0431B6813F0006F4E
:101EF00006D000F03FFB001B0228F4D9032400E0C9
:101F000000240CB1204670BD4FF0B0431A6922F492
:101F1000FE42296842EA01221A611A6922F06042EF
:101F2000E9680A431A611A6842F080621A6000F098
:101F300021FB06464FF0B0431B6813F0006F05D13C
:101F400000F018FB801B0228F4D90324002CD9D1FF
:101F50004FF0B042136929690B431361D2E770B5A2
:101F60000446036813F0400F2FD0036BB3F5800FC6
:101F700014D00AD833B90430FFF71CFF0646A0B1CD
:101F8000054624E001252E4621E0B3F5000F18D0C8
:101F9000B3F5400F17D001252E4618E04FF0B042A0
:101FA000D36843F48033D3600026236B4FF0B041F5
:101FB000D1F8882022F440021343C1F8883000256C
:101FC00005E00026F1E70026EFE700252E4623680E
:101FD00013F4006F0AD04FF0B043D3F8905005F4DB
:101FE0004075236CAB4240F0B7803546236813F050
:101FF000010F09D0A3694FF0B041D1F8882022F039
:1020000003021343C1F88830236813F0020F09D08C
:10201000E3694FF0B041D1F8882022F440621343C5
:10202000C1F88830236813F0100F0CD0A16A4FF06C
:10203000B042D2F88830080C000423EA000343EAD7
:102040000143C2F88830236813F0200F0CD0E16AF6
:102050004FF0B042D2F88830080C000423EA0003A5
:1020600043EA0143C2F88830236813F0040F40F0BC
:10207000B480236813F0080F40F0B380236813F492
:10208000807F13D0636B4FF0B041D1F8882022F0ED
:1020900040621343C1F88830636BB3F1006F00F006
:1020A000A480636BB3F1806F00F0A480236813F405
:1020B000007F17D0A36BB3F1804F05D0B3F1004F71
:1020C00002D0002B40F09E804FF0B041D1F8882024
:1020D00022F040421343C1F88830A36BB3F1C05FD4
:1020E00000F0A280236813F4806F13D0E36B4FF0ED
:1020F000B041D1F8882022F040521343C1F8883013
:10210000E36BB3F1005F00F09680E36BB3F1805FA7
:1021100000F09680236813F4805F09D0636C4FF061
:10212000B041D1F8942022F440421343C1F89430D6
:10213000236813F4005F0DD0E26C4FF0B043596A8E
:1021400021F030010A435A62A26C596A21F003015E
:102150000A435A62284670BD00F072F95DB9236CDB
:102160004FF0B041D1F8902022F440721343C1F8EF
:10217000903035463AE74FF0B043D3F89020D3F88B
:10218000901041F48031C3F89010D3F8901021F4EE
:102190008031C3F8901022F44072216C0A43C3F8D6
:1021A0009020D3F8903013F0010F12D000F0E2F934
:1021B00005464FF0B043D3F8903013F0020F0AD128
:1021C00000F0D8F9401B41F288339842F1D9032539
:1021D0000CE735460AE7354608E7206AFFF7DAFDDF
:1021E00047E7606AFFF7D6FD48E7CB6843F08073A6
:1021F000CB6056E7201DFFF724FE00283FF456AFC2
:10220000054653E723F080534FF0B042D2F88810D0
:1022100021F04041C2F88810D2F8881021F04061C6
:102220000B43C2F8883058E74FF0B042D36843F010
:102230008073D36056E7CB6843F48033CB6064E7A8
:10224000201DFFF745FE00283FF464AF054661E717
:10225000F0B5002366E085685E000324B44025EAFB
:102260000405CC68B4402C438460456825EA0C051D
:102270004C68C4F300149C402C43446063E0DD08C8
:10228000083550F8254003F0070C4FEA8C0C4FF04E
:102290000F0E0EFA0CFE24EA0E0E0C6904FA0CF472
:1022A00044EA0E0440F8254064E0042400E00024E1
:1022B00004FA0EF42C430CF1020C4F4D45F82C405F
:1022C0004E4C2568D44325EA02064F6817F4801F58
:1022D00001D042EA0506494D2E606D6804EA050604
:1022E0004F6817F4001F01D042EA0506434D6E60A7
:1022F000D5F8805004EA05064F6817F4803F01D0F6
:1023000042EA05063D4DC5F88060D5F884502C4062
:102310004E6816F4003F01D042EA0504374AC2F87D
:10232000844001330A6832FA03F464D04FF0010CA0
:102330000CFA03FC1CEA0202F3D04C6804F003041C
:10234000013C012C87D94C6804F00304032C0CD009
:10235000C4685D004FF0030C0CFA05FC24EA0C0C79
:102360008C68AC4044EA0C04C4604C6804F003047C
:10237000022C84D004684FEA430E4FF0030C0CFA91
:102380000EFC24EA0C0C4C6804F0030404FA0EF46E
:1023900044EA0C0404604C6814F4403FC1D04FEA96
:1023A000930C0CF10205144C54F8255003F0030E65
:1023B0004FEA8E0E0F2404FA0EF425EA0405B0F15C
:1023C000904F3FF474AF0E4CA0420ED004F58064E1
:1023D000A0420CD004F58064A0420AD004F58064C9
:1023E000A0423FF462AF072462E7012460E70224C1
:1023F0005EE703245CE7F0BD0000014000080058E0
:10240000000400480AB181617047816270474369E6
:1024100001EA030221EA030141EA024181617047B6
:102420007047000008B5054BD8681A6822EA000218
:102430001A605860FFF7F4FF08BD00BF0015005890
:10244000024A136843F48073136070470004005815
:10245000024B186800F4C060704700BF00040058C9
:10246000002807DB00F01F02400901239340024AC5
:1024700042F82030704700BF00E100E0002808DB90
:102480000901C9B200F1604000F5614080F8001315
:10249000704700F00F000901C9B2014B1954704791
:1024A00014ED00E000B500F00700C0F1070CBCF12E
:1024B000040F28BF4FF0040C031D062B0FD9C31EB9
:1024C0004FF0FF3E0EFA0CF021EA000199400EFA9F
:1024D00003FE22EA0E0241EA02005DF804FB00233B
:1024E000EEE70000074AD36823F4E0631B041B0CEB
:1024F000000200F4E060034343F0BF6343F40033A1
:10250000D360704700ED00E010B50446054BD86875
:10251000C0F30220FFF7C6FF01462046FFF7AEFFDB
:1025200010BD00BF00ED00E008B5FFF799FF08BD42
:1025300010B5094A136843F4807313600320FFF752
:10254000D1FF0F20FEF7ECF910B10124204610BD99
:102550000446FEF785F8F9E700400058034B1B7866
:10256000034A11680B441360704700BF0800002045
:10257000A0020020014B1868704700BFA002002095
:10258000014B1868704700BF0C00002000285FD086
:1025900010B5044690F84130002B48D0242384F82D
:1025A00041302268136823F00103136063682268D6
:1025B00023F0706313612268936823F400439360EF
:1025C000E368012B38D0A368226843F40443936086
:1025D000E368022B36D02268536823F4006353600B
:1025E0002268536843F0007343F400435360226849
:1025F000D36823F40043D360236962691343A1695C
:10260000226843EA0123D360E369216A22680B430D
:1026100013602268136843F00103136000206064B4
:10262000202384F84130206384F8420010BD80F8F4
:102630004030FEF733F8B1E7A368226843F4004363
:102640009360C5E72268536843F400635360C7E7AB
:1026500001207047034690F84120202A23D190F8AA
:102660004020012A21D0012280F84020242280F835
:1026700041200068026822F00102026018680268C6
:1026800022F480520260186802680A4302601968E6
:102690000A6842F001020A60202283F841200020EB
:1026A00083F84000704702207047022070470346BD
:1026B00090F84120202A21D190F84020012A1FD0F3
:1026C000012280F84020242280F84120006802681E
:1026D00022F0010202601868026822F4706242EA85
:1026E0000122026019680A6842F001020A60202291
:1026F00083F84120002083F8400070470220704793
:102700000220704770477047002309E000EB830206
:10271000054951609A1D00EB820204495160013362
:10272000052BF3D9704700BF0527000807270008CD
:10273000002303604FF03F1343603F2383607047E3
:10274000C0B138B5044690F8383083B10A4D2846F8
:10275000FFF7EEFF2B6843F001132B602046FFF7D5
:10276000D3FF00206063012384F8383038BDFDF7C3
:10277000DBFFEBE701207047000C005800286AD00F
:1027800010B50446436A33B94368B3F5827F05D078
:102790000023C36102E00023036143610023A362BD
:1027A00094F85D30002B4DD0022384F85D30226810
:1027B000136823F040031360E368B3F5E06F47D973
:1027C0000022B3F5706F04D0B3F5E06F01D00023A1
:1027D000A362636803F48273A16801F404410B43AC
:1027E000216901F002010B43616901F001010B4312
:1027F000A16901F400710B43E16901F038010B4359
:10280000216A01F080010B43A16A01F400512068A4
:102810000B430360638B03F00403616A01F0100152
:102820000B43616B01F008010B43E16801F4706137
:102830000B43216813434B6000202066012384F87A
:102840005D3010BD84F85C302046FDF783FFABE7B8
:102850004FF48052B5E701207047026852E8003F0C
:1028600023F4907342E800310029F6D1026802F1A6
:10287000080353E8003F23F0805323F0010308329C
:1028800042E800310029F1D1C36E012B06D020238C
:10289000C0F88C300023C36643677047026852E873
:1028A000003F23F0100342E800310029F6D1EEE7A3
:1028B00070B5044683680269134342691343C269D1
:1028C000134301680868894A02401A430A60226873
:1028D000536823F44053E1680B435360A1692268B5
:1028E000834B9A4201D0236A1943936823F06E43C5
:1028F00023F430630B4393602268D36A23F00F0301
:10290000616A0B43D36222687A4B9A4214D0784BA7
:102910009A4225D0102376498A4240D0E069B0F52A
:10292000004F7AD0013B072B00F2D480DFE803F0A0
:10293000A6A4D2ABD2D2D2AE4FF0B043D3F88830F7
:1029400003F00303032B09D8DFE803F002041F069A
:102950000123E0E70423DEE70823DCE71023DAE7BE
:102960004FF0B043D3F8883003F44063B3F5006F01
:102970000DD005D86BB1B3F5806F0CD10423CAE735
:10298000B3F5406F09D10823C5E70223C3E702234B
:10299000C1E70023BFE71023BDE71023BBE7082BE7
:1029A00000F28C80DFE803F0088A108A0D8A8A8A98
:1029B00005004FF4004008E0FFF7A2F928B9002015
:1029C00089E0FEF76FFCF9E74B48626A4B4B33F83E
:1029D0001220B0FBF2F3656805EB450199426FD810
:1029E000B3EB053F6ED8002633463146FDF7A8FB12
:1029F000090241EA106100026B08C0182A463346FA
:102A000041F10001FDF79CFBA0F540723C4B9A425E
:102A10005AD82368D86030465DE0013B072B55D873
:102A2000DFE803F021045427545454053248626A05
:102A3000324B33F81230B0FBF3F06268530803EB0B
:102A40004003B3FBF2F3A3F110014FF6EF72914292
:102A50003ED89AB222F00F02C3F342031343226816
:102A6000D360002037E0FFF75DF90028DFD10020B8
:102A700031E0FEF717FCF8E71F4809E0FFF752F9CD
:102A800030B9002027E0FEF70DFCF9E74FF40040D5
:102A9000626A1A4B33F81230B0FBF3F0636800EB54
:102AA0005300B0FBF3F0A0F110024FF6EF739A421F
:102AB0001AD8236880B2D86000200CE001200AE018
:102AC000012008E0012006E0012004E0012002E0EE
:102AD000012000E001200123A4F86A30A4F8683046
:102AE00000236367A36770BD0120F4E7F369FFCF9C
:102AF00000800040003801400024F400604F0008CE
:102B0000FFFC0F00836A13F0080F06D002685368B9
:102B100023F40043816B0B435360836A13F0010F6E
:102B200006D00268536823F40033C16A0B43536034
:102B3000836A13F0020F06D00268536823F48033CF
:102B4000016B0B435360836A13F0040F06D00268D5
:102B5000536823F48023416B0B435360836A13F063
:102B6000100F06D00268936823F48053C16B0B43A7
:102B70009360836A13F0200F06D00268936823F4F1
:102B80000053016C0B439360836A13F0400F0AD02B
:102B90000268536823F48013416C0B435360436C09
:102BA000B3F5801F0BD0836A13F0800F06D0026844
:102BB000536823F40023C16C0B43536070470268D1
:102BC000536823F4C003816C0B435360EBE72DE99A
:102BD000F84305460E4617469946DDF820802B68D7
:102BE000DC6936EA04040CBF01240024BC4236D15F
:102BF000B8F1FF3FF3D0FFF7BDFCA0EB0900404563
:102C000030D8B8F1000F2FD02B681A6812F0040FDB
:102C1000E5D0802EE3D0402EE1D0DA6912F0080F23
:102C200011D1DA6912F4006FD9D04FF400621A6240
:102C30002846FFF712FE2023C5F89030002385F8C0
:102C4000843003200CE008241C622846FFF705FEB0
:102C5000C5F89040002385F88430012000E0002072
:102C6000BDE8F8830320FBE70320F9E730B583B024
:102C700004460023C0F89030FFF77CFC054622682C
:102C8000126812F0080F10D123681B6813F0040FAC
:102C900028D12023C4F88830C4F88C300020E066A6
:102CA000206784F8840003B030BD6FF07E4300934A
:102CB000034600224FF400112046FFF788FF00284A
:102CC000E2D0226852E8003F23F0800342E800315E
:102CD0000029F6D12023C4F88830002384F88430FA
:102CE0000320E0E76FF07E4300932B4600224FF471
:102CF00080012046FFF76BFF0028CAD0226852E807
:102D0000003F23F4907342E800310029F6D1226895
:102D100002F1080353E8003F23F00103083242E8C0
:102D200000310029F3D12023C4F88C30002384F82B
:102D300084300320B7E778B310B50446D0F8883064
:102D40000BB32423C4F888302268136823F00103EE
:102D50001360A36AE3B92046FFF7AAFD012811D04A
:102D60002268536823F4904353602268936823F0E9
:102D70002A0393602268136843F00103136020461E
:102D8000FFF774FF10BD80F88430FDF787FDD8E7AA
:102D90002046FFF7B7FEDEE701207047436E2BB9F0
:102DA0000123A0F86A30A0F86830704730B4036897
:102DB0009A68C2F342629968490F094D6B5CDB0067
:102DC000084C615C93FBF1F3A0F86A30AB5CDB006C
:102DD000A25C93FBF2F3A0F8683030BC704700BFF0
:102DE000804F0008784F000890F88430012B18D0ED
:102DF000012380F884302423C0F8883003681A68DF
:102E0000196821F00101196022F000520023436685
:102E100001680A602022C0F8882080F884301846B3
:102E200070470220704738B590F88430012B1DD0D0
:102E30000446012380F884302423C0F888300368D6
:102E40001D681A6822F001021A600268936823F074
:102E5000604319439160FFF7A1FF23681D602023A1
:102E6000C4F88830002084F8840038BD0220FCE7D4
:102E700038B590F88430012B1DD00446012380F82A
:102E800084302423C0F8883003681D681A6822F053
:102E900001021A600268936823F06063194391602D
:102EA000FFF77CFF23681D602023C4F888300020D2
:102EB00084F8840038BD0220FCE70000164AD2F8EE
:102EC000883043F47003C2F888304FF0B0431A687A
:102ED00042F001021A604FF4E0229A601968A2F1F0
:102EE000A262A2F205120A401A60D3F8942022F0DE
:102EF0000502C3F89420D3F8982022F00102C3F809
:102F00009820064ADA601A611A6822F480221A6050
:102F100000229A61704700BF00ED00E0001004221B
:102F200000F1080343604FF0FF328260C360036129
:102F300000230360704700230361704743684B60C0
:102F40009A688A6051609960086103680133036080
:102F5000704730B40D68B5F1FF3F11D000F10803A0
:102F60001C465B681A68AA42FAD963684B6099608C
:102F70008C606160086103680133036030BC704796
:102F80000469F2E70369416882688A6041685160B8
:102F90005A68824206D0002202611A68013A1A6019
:102FA0001868704782685A60F5E710B5044601F06A
:102FB00019FCA26BE36B9A4204D0002401F034FCAC
:102FC000204610BD0124F9E710B5044601F00AFCC3
:102FD000A36B23B9012401F027FC204610BD002477
:102FE000F9E770B504461546866B026C5AB903685A
:102FF0001BB100200136A66370BD806800F0D2FFCF
:103000000023A360F6E76DB9406801F0EDFD636849
:10301000226C13446360A268934219D323686360EF
:103020002846E7E7C06801F0DFFDE368226C514203
:103030009B1AE3602268934202D2A3680B44E360C8
:10304000022D01D00020D5E726B1013E0020D1E7B6
:103050002846CFE70020CDE70346026C6AB110B5E1
:103060000846D9681144D9609C68A14201D3196807
:10307000D960D96801F0B8FD10BD704738B5054674
:1030800001F0B0FB95F8454064B201E0013C64B248
:10309000002C0ADD6B6A43B105F1240000F0D6FE76
:1030A0000028F3D000F068FFF0E7FF2385F84530F3
:1030B00001F0BAFB01F096FB95F8444064B201E0E0
:1030C000013C64B2002C0ADD2B6943B105F110000C
:1030D00000F0BCFE0028F3D000F04EFFF0E7FF2325
:1030E00085F8443001F0A0FB38BD38B5E0B10D469D
:1030F000044601F077FB2368E26B216C01FB023090
:10310000A0600020A0636360013A02FB0133E3602A
:10311000FF2384F8443084F84530FDB9236963B94E
:1031200001F082FB012038BD4FF0500383F311887A
:10313000BFF36F8FBFF34F8FFEE704F1100000F075
:1031400085FE0028ECD04FF0E0234FF08052C3F80A
:10315000042DBFF34F8FBFF36F8FE1E704F1100031
:10316000FFF7DEFE04F12400FFF7DAFED8E738B5FA
:103170001D46049C0B4649B92460E0632364012189
:103180002046FFF7B2FF84F84C5038BD2260F4E7C8
:1031900040B94FF0500383F31188BFF36F8FBFF333
:1031A0004F8FFEE710B584B01C46844653B192B1F0
:1031B00089B94FF0500383F31188BFF36F8FBFF3CA
:1031C0004F8FFEE74FF0500383F31188BFF36F8FEB
:1031D000BFF34F8FFEE76AB150230393039B502B3D
:1031E00013D04FF0500383F31188BFF36F8FBFF3F9
:1031F0004F8FFEE70029EFD04FF0500383F3118883
:10320000BFF36F8FBFF34F8FFEE7039B012384F85B
:10321000463000949DF818306046FFF7A8FF20461E
:1032200004B010BDF0B585B0019288B10F461D46BF
:103230000446B1B1022D20D1E36B012B1DD04FF01C
:10324000500383F31188BFF36F8FBFF34F8FFEE7F7
:103250004FF0500383F31188BFF36F8FBFF34F8F8D
:10326000FEE7036C002BE5D04FF0500383F3118889
:10327000BFF36F8FBFF34F8FFEE700F083FE06466C
:1032800058B9019B002B48D04FF0500383F31188AD
:10329000BFF36F8FBFF34F8FFEE700263DE02A4656
:1032A00039462046FFF79DFE636A7BB948B14FF06F
:1032B000E0234FF08052C3F8042DBFF34F8FBFF3CC
:1032C0006F8F01F0B1FA012005B0F0BD04F12400C8
:1032D00000F0BCFD0028F4D04FF0E0234FF0805206
:1032E000C3F8042DBFF34F8FBFF36F8FE9E701F0F1
:1032F0009BFA0020E8E702A800F0EEFD012619E0A5
:10330000002384F8443021E0002384F8453023E092
:103310002046FFF7B3FE00F077FC01F063FAA26BE2
:10332000E36B9A42BBD3022DB9D0019B002BDED0B8
:10333000002EE0D001F078FA00F0CCFB01F052FA58
:1033400094F8442052B2B2F1FF3FD9D094F845200E
:1033500052B2B2F1FF3FD7D001F066FA01A902A83C
:1033600000F0C6FDD8B92046FFF71FFE0028CFD0D9
:10337000019904F1100000F035FD2046FFF77EFEB4
:1033800000F042FC0028C8D14FF0E0234FF08052FB
:10339000C3F8042DBFF34F8FBFF36F8FBDE72046F7
:1033A000FFF76CFE00F030FC00208DE72DE9F843BC
:1033B00090B10F4616461C460546B1B1022C20D1ED
:1033C000EB6B012B1DD04FF0500383F31188BFF33B
:1033D0006F8FBFF34F8FFEE74FF0500383F31188D9
:1033E000BFF36F8FBFF34F8FFEE7036C002BE5D069
:1033F0004FF0500383F31188BFF36F8FBFF34F8FEC
:10340000FEE701F015FBEFF311884FF0500383F353
:103410001188BFF36F8FBFF34F8FAA6BEB6B9A428C
:1034200006D3022C04D0002088F31188BDE8F8836D
:1034300095F845904FFA89F9AB6B224639462846F4
:10344000FFF7CFFDB9F1FF3F06D009F101035BB2F1
:1034500085F845300120E7E76B6A0BB90120E3E707
:1034600005F1240000F0F2FC18B126B10120306013
:10347000DAE70120D8E70120D6E7F0B585B0019260
:1034800090B10F460446C1B100F07CFD064600BB7A
:10349000019B002B5ED04FF0500383F31188BFF3E4
:1034A0006F8FBFF34F8FFEE74FF0500383F3118808
:1034B000BFF36F8FBFF34F8FFEE7036C002BE3D09A
:1034C0004FF0500383F31188BFF36F8FBFF34F8F1B
:1034D000FEE700263EE039462046FFF7BDFD013DF0
:1034E000A563236923B901F09FF9012005B0F0BD60
:1034F00004F1100000F0AAFC0028F4D04FF0E02303
:103500004FF08052C3F8042DBFF34F8FBFF36F8F7E
:10351000E9E701F089F90020E8E702A800F0DCFC07
:10352000012621E0002384F8443029E0002384F8B8
:1035300045302BE02046FFF7A1FD00F065FB09E0D8
:103540002046FFF79BFD00F05FFB2046FFF73CFDA8
:1035500000283FD101F046F9A56B002DBBD1019B9E
:10356000002BD6D0002ED8D001F05EF900F0B2FAD0
:1035700001F038F994F844305BB2B3F1FF3FD1D099
:1035800094F845305BB2B3F1FF3FCFD001F04CF976
:1035900001A902A800F0ACFC0028D1D12046FFF719
:1035A00013FD0028C6D0019904F1240000F01AFC94
:1035B0002046FFF763FD00F027FB0028CAD14FF03B
:1035C000E0234FF08052C3F8042DBFF34F8FBFF3B9
:1035D0006F8FBFE7002089E70023072B0CD8074A2D
:1035E00052F833200AB10133F7E7044A42F83310A6
:1035F00002EBC30250607047704700BFA402002076
:1036000070B504460D46164601F0ECF894F84430C7
:103610005BB2B3F1FF3F0DD094F845305BB2B3F12C
:10362000FF3F0BD001F000F9A36B5BB12046FFF721
:1036300025FD70BD002384F84430EDE7002384F8B5
:103640004530EFE73246294604F1240000F0E2FB62
:10365000ECE70000084B1B681B6823B9074B4FF0D1
:10366000FF321A607047044B1B68DB68DB685A68DE
:10367000024B1A60704700BF54030020EC02002088
:103680002DE9F04780460D4617469946089EDDF81D
:1036900024A00A9C9200A521206B01F078FA236BEC
:1036A00007F18042013A03EB820727F00707A5B331
:1036B0004FF0000CBCF10F0F09D815F80C3004EBDB
:1036C0000C0282F8343013B10CF1010CF2E7002344
:1036D00084F84330372E00D93726E662E6640025A9
:1036E0002565201DFFF727FC04F11800FFF723FCD8
:1036F0002461C6F13806A6616462656584F8585095
:103700004A464146384601F045F82060BAF1000FBC
:1037100001D0CAF80040BDE8F087002384F83430B7
:10372000D8E7000038B5002407E004EB84029300DA
:103730000E481844FFF7F4FB0134372CF5D90C4D33
:103740002846FFF7EDFB0B4C2046FFF7E9FB0A4844
:10375000FFF7E6FB0948FFF7E3FB0948FFF7E0FB4B
:10376000084B1D60084B1C6038BD00BF8003002063
:103770006C030020580300203C0300202803002095
:1037800010030020540300205003002010B504460D
:1037900001F028F8224A136801331360214B1B689B
:1037A0005BB1214B1B686BB91E4B1B68DA6AE36A7D
:1037B0009A4207D81B4B1C6004E01A4B1C6013682C
:1037C000012B29D0194A1368013313606364E06A3E
:1037D000174B1B68984201D9154B186000EB80000D
:1037E000211D144B03EB8000FFF7A8FB01F01CF830
:1037F0000D4B1B687BB10B4B1B68DA6AE36A9A427C
:1038000009D24FF0E0234FF08052C3F8042DBFF3EC
:103810004F8FBFF36F8F10BDFFF784FFD2E700BF5C
:103820000C030020E007002000030020F00200202D
:10383000040300208003002010B5044690F859309E
:1038400063B1012B11D0022B0ED04FF0500383F344
:103850001188BFF36F8FBFF34F8FFEE7006B00F04F
:103860001DFF204600F01AFF10BD00F017FFFBE718
:103870000F4B1B68D3B110B500F0B4FF0D4BDB68E4
:10388000DC68201DFFF77EFB0B4A1368013B1360C9
:10389000074A1368013B136000F0C6FF2046FFF79C
:1038A000CBFF034B1B68002BE6D110BD704700BF58
:1038B00024030020280300200C03002008B5FFF794
:1038C000D7FF074B1B68012BF9D94FF0E0234FF0CE
:1038D0008052C3F8042DBFF34F8FBFF36F8FEEE715
:1038E0008003002070B504460D46174B1E68174B29
:1038F00018680430FFF746FBB4F1FF3F0DD03444A5
:10390000124B1B685C60A64210D9114B18680F4B14
:1039100019680431FFF71DFB70BD002DEFD00B4B74
:10392000196804310B48FFF709FBF5E70A4B1868E3
:10393000064B19680431FFF70CFB084B1B68A342C8
:10394000EAD9064B1C60E7E708030020E0070020E7
:10395000500300201003002054030020EC0200203C
:1039600030B587B00B9C7CB10C9DB5B15C2504953E
:10397000049D5C2D1AD04FF0500383F31188BFF3E0
:103980006F8FBFF34F8FFEE74FF0500383F3118823
:10399000BFF36F8FBFF34F8FFEE74FF0500383F3FA
:1039A0001188BFF36F8FBFF34F8FFEE7049D0C9D0F
:1039B0002C63022485F8594000240394029505AC39
:1039C00001940A9C0094FFF75BFE0C98FFF7DEFE63
:1039D000059807B030BD2DE9F04385B0074688460D
:1039E00014461E46900000F0D7FD08B381465C20C7
:1039F00000F0D2FD0546A8B1C0F83090002380F851
:103A00005930039302900D9B01930C9B0093334616
:103A1000224641463846FFF733FE2846FFF7B6FEFA
:103A2000012007E0484600F039FE4FF0FF3001E08A
:103A30004FF0FF3005B0BDE8F083000010B588B04E
:103A400000240594069407AA06A905A800F028FDFD
:103A5000059B0293069B019300942346079A1749FE
:103A60001748FFF77DFF174B1860C0B100F04EFB01
:103A7000012815D14FF0500383F31188BFF36F8FE6
:103A8000BFF34F8F104B4FF0FF321A600F4B0122E4
:103A90001A600F4B00221A6000F03EFF03E0002086
:103AA000B0F1FF3F01D008B010BD4FF0500383F3D9
:103AB0001188BFF36F8FBFF34F8FFEE7484F0008A9
:103AC000BD380008E8020020EC02002000030020BE
:103AD00008030020024A136801331360704700BFD7
:103AE000E4020020014B1868704700BF0803002063
:103AF000F8B53A4B1B68002B69D1394B1D6801356D
:103B00001D60C5B9374B1B681B6843B14FF05003AC
:103B100083F31188BFF36F8FBFF34F8FFEE7314AF6
:103B20001168314B186810601960304A136801330E
:103B30001360FFF78FFD2E4B1B68AB423DD900276A
:103B40002C4B1B68DB6A03EB83039A002A4B9B58C0
:103B5000012B00D90127294B1B68002B3CD00127E2
:103B60003AE001271F4B1B681B6843B31D4B1B68C2
:103B7000DB68DC6863689D4226D3261D3046FFF76C
:103B800001FAA36A1BB104F11800FFF7FBF9E36A1D
:103B90001B4A1268934201D9194A136003EB83034D
:103BA0009A00314614481044FFF7C8F9E26A114BF5
:103BB0001B68DB6A9A42D4D2D4E70027D2E70C4BC9
:103BC0004FF0FF321A60BBE7094A1360B8E70D4AAD
:103BD00013680133136000273846F8BDE402002063
:103BE000080300205403002050030020F4020020AA
:103BF000EC020020E007002080030020F8020020F3
:103C000004030020FC02002038B5354B1B6843B983
:103C10004FF0500383F31188BFF36F8FBFF34F8FC3
:103C2000FEE700F0DFFD2E4B1A68013A1A601B68B0
:103C3000002B4FD12B4B1B680BB900244BE0002409
:103C4000294B1B681BB3284BDB68DC6804F11800A8
:103C5000FFF798F9251D2846FFF794F9E06A234BF2
:103C60001B68984201D9214B186000EB800029465F
:103C70001F4B03EB8000FFF761F9E26A1D4B1B68E5
:103C8000DB6A9A42DCD31C4B01221A60D8E70CB1E4
:103C9000FFF7E0FC194B1C6884B9174B1C68D4B1C2
:103CA0004FF0E0234FF08052C3F8042DBFF34F8F45
:103CB000BFF36F8F01240EE0013C07D0FFF718FF20
:103CC0000028F9D00C4B01221A60F5E70B4B0022BB
:103CD0001A60E2E7002400F0A7FD204638BD00BFCF
:103CE000E40200200C0300203C0300200403002019
:103CF00080030020E0070020F8020020FC020020E2
:103D000010B5A8B10446104B1B6843B14FF05003E7
:103D100083F31188BFF36F8FBFF34F8FFEE7FFF779
:103D2000D9FE00212046FFF7DDFDFFF76DFF48B902
:103D30004FF0E0234FF08052C3F8042DBFF34F8FB4
:103D4000BFF36F8F10BD00BFE4020020204B1B6843
:103D50001BB1204B01221A6070471E4B00221A60D3
:103D60001D4B1B6803EB83018A001C498A585AB912
:103D70000BB1013BF6E74FF0500383F31188BFF31B
:103D80006F8FBFF34F8FFEE7084603EB83018A0076
:103D9000024451684968516003EB830C4FEA8C027E
:103DA0000832024491420BD003EB830291000B4A8C
:103DB0000A445268D1680A4A1160074A1360704782
:103DC000486862469100054A0A445060ECE700BF2B
:103DD000E4020020F80200200403002080030020F9
:103DE000E007002058B110B50C46094A1168183197
:103DF000FFF7AFF801212046FFF774FD10BD4FF02B
:103E0000500383F31188BFF36F8FBFF34F8FFEE72B
:103E1000E007002038B570B10D4614460A4A116813
:103E20001831FFF78BF80CB14FF0FF3521462846CB
:103E3000FFF758FD38BD4FF0500383F31188BFF3EF
:103E40006F8FBFF34F8FFEE7E007002038B5C368E0
:103E5000DC6824B304F118052846FFF793F8184BE3
:103E60001B682BBB251D2846FFF78CF8E06A154B15
:103E70001B68984201D9134B186000EB800029465B
:103E8000114B03EB8000FFF759F8E26A0F4B1B68F8
:103E9000DB6A9A4211D901200D4B186038BD4FF0F2
:103EA000500383F31188BFF36F8FBFF34F8FFEE78B
:103EB00029460848FFF742F8E7E70020EEE700BF91
:103EC000E40200200403002080030020E00700201B
:103ED000F80200203C030020034B1B680360034BE7
:103EE0001B684360704700BFF402002008030020F5
:103EF000E0B170B50C46054609B300F073FC1C4BED
:103F000019686B68C81A2268B2F1FF3F28D0DFF841
:103F100064C0DCF800C02E68664501D08B4224D90D
:103F2000824215D80023236001241AE04FF0500389
:103F300083F31188BFF36F8FBFF34F8FFEE74FF00E
:103F4000500383F31188BFF36F8FBFF34F8FFEE7EA
:103F50005B1A134423602846FFF7BEFF002400E0ED
:103F6000002400F061FC204670BD0124F9E700BF89
:103F700008030020F4020020014B01221A60704760
:103F8000F8020020054B1B6833B1054B1B680BB1D1
:103F90000020704702207047012070470003002076
:103FA000E402002000283BD038B504461E4B1B68B5
:103FB000834208D04FF0500383F31188BFF36F8F13
:103FC000BFF34F8FFEE7036D43B94FF0500383F308
:103FD0001188BFF36F8FBFF34F8FFEE7013B03657F
:103FE000C16AC26C91421DD00BB1002038BD051DC5
:103FF0002846FEF7C7FFE06CE062C0F13803A3611A
:104000000A4B1B68984201D9084B186000EB8000EE
:104010002946074B03EB8000FEF790FF0120E5E700
:10402000002070470020E1E7E007002004030020A3
:1040300080030020064B1A6813682BB90123036024
:1040400023B9D368186870470023F8E70020704749
:10405000E408002008B54160006191420CD8D21AF2
:1040600083699A4201D3012008BD011D094B1868DC
:10407000FEF76FFF0020F7E79A4201D2994206D27D
:10408000011D054B1868FEF764FF0020ECE70120D6
:10409000EAE700BFE0080020E408002030B583B064
:1040A00000F0A0FB114B1B681BB100F0BDFB03B07F
:1040B00030BD0F4D2846FEF733FF0E4C2046FEF76D
:1040C0002FFF0D4B1D600D4B1C60002300930C4B0C
:1040D0000C4A10210A20FFF75BF8044B18600028F7
:1040E000E3D00949FFF778FADFE700BFDC080020DA
:1040F000FC080020E8080020E4080020E008002078
:10410000E407002034080020504F000810B588B0A4
:10411000FFF7C4FF124B1B68CBB100240594069433
:1041200007AA06A905A800F0C7F9059B0293069BFC
:104130000193022300932346079A0A490A48FFF78E
:104140000FFC0A4B186010B1012008B010BD4FF0F1
:10415000500383F31188BFF36F8FBFF34F8FFEE7D8
:10416000DC080020584F000871440008D8080020DF
:10417000B8B19C4603461848006858B300B585B0EE
:1041800000910192029305291CDCFFF7FBFE022837
:1041900010D000231A4669460F480068FFF742F81E
:1041A00015E04FF0500383F31188BFF36F8FBFF317
:1041B0004F8FFEE70023069A694607480068FFF71D
:1041C00031F804E0002362466946FFF7EFF805B0D6
:1041D0005DF804FB00207047DC08002070B582B059
:1041E0001B4B1B681A6862B3DB681E68DC68251D00
:1041F0002846FEF7C7FE236A2046984794F82830E1
:1042000013F0040FECD0A36933449E4207D26360DD
:10421000246129460E4B1868FEF79BFEE0E700215B
:1042200000910B4632462046FFF7A2FF0028D7D167
:104230004FF0500383F31188BFF36F8FBFF34F8F9D
:10424000FEE7044A106802490860136002B070BDBE
:10425000E4080020E008002038B50546FFF742FCDE
:104260000446074B1B68834205D800232B60044B90
:104270001C60204638BDFFF7B1FF01232B60F6E735
:10428000D408002070B582B006460D46174909686B
:10429000C968CC68201DFEF775FE94F828C01CF094
:1042A000040F08D12CF0010C84F828C0236A2046A2
:1042B000984702B070BDA16933462A463144204672
:1042C000FFF7C8FE0028F1D0002100910B463246CE
:1042D0002046FFF74DFF0028E8D14FF0500383F34D
:1042E0001188BFF36F8FBFF34F8FFEE7E408002004
:1042F00070B582B006460C46FFF7ECFB01A8FFF74D
:10430000ABFF019B33BB0546E4B9B04213D2224652
:10431000711B124B1868FFF773F9FFF775FCD8B9DA
:104320004FF0E0234FF08052C3F8042DBFF34F8FBE
:10433000BFF36F8F10E0FFF767FC29463046FFF7A9
:10434000A1FF09E0064A126812680AB90124DEE7F3
:104350001C46DCE7FFF758FC02B070BDDC0800200B
:10436000E008002010B588B002E0049B002B0FDAB3
:10437000002204A93D4B1868FFF77FF8002872D08F
:10438000049B002BF1DA07990698059B9847ECE708
:10439000069C636913B1201DFEF7F4FD03A8FFF727
:1043A0005BFF0246049B092BE2D8DFE803F005051A
:1043B000052F364E05052F3694F8283043F00103BB
:1043C00084F82830059BA16919442046FFF742FE76
:1043D0000028CDD0236A2046984794F8283013F05F
:1043E000040FC5D0A269002100910B460598024434
:1043F0002046FFF7BDFE0028BAD14FF0500383F3EB
:104400001188BFF36F8FBFF34F8FFEE794F828300A
:1044100023F0010384F82830AAE794F8283043F009
:10442000010384F828300599A16129B103460144AC
:104430002046FFF70FFE9BE74FF0500383F31188F0
:10444000BFF36F8FBFF34F8FFEE794F8283013F060
:10445000020F04D023F0010384F8283088E72046B7
:1044600000F01CF984E708B010BD00BFDC08002094
:1044700000B583B001A8FFF7DDFD0199FFF738FF14
:10448000FFF770FFF6E708B54FF0E0231B69FFF771
:1044900079FD012800D108BD00F014FAFBE7000007
:1044A000034B0360034B0B6080231360704700BF16
:1044B0006C0F00206C0D0020034B0360034B0B605E
:1044C0004FF4807313607047100D00201009002016
:1044D000124A12F0070F1ED0D11D21F00701C1F5BD
:1044E000406313440A460E480260002141601344B1
:1044F000083B23F007030B48036059601960991AC1
:1045000051601360084B1960084B1960084B4FF05D
:1045100000421A6070474FF44063E4E7E80F002060
:10452000E00F0020DC0F0020D40F0020D80F002067
:10453000C80F0020164B1A461B688342FBD35168F4
:1045400002EB010C844509D0416800EB010C634586
:1045500009D00360904219D0106070474068014450
:1045600051601046F0E710B40A4C2468A3420BD007
:104570005B681944416013681B680360904200D077
:1045800010605DF8044B70470460F7E7704700BFA8
:10459000E00F0020DC0F002038B50446FFF79AFA40
:1045A000384B1B68B3B1384B1B681C4250D1002CF0
:1045B00050D004F1080214F0070F02D022F00702D5
:1045C0000832002A55D0314B1B68934253D33049EF
:1045D0000C6804E0FFF77CFFE5E721461C466368B2
:1045E000934202D22368002BF7D1264B1B68A342CB
:1045F00043D00D68083523680B6063689B1A102B45
:1046000010D9A01810F0070F08D04FF0500383F313
:104610001188BFF36F8FBFF34F8FFEE74360626077
:10462000FFF788FF626819490B689B1A0B601949EC
:1046300009688B4201D217490B60134B1B68134367
:10464000636000232360144A13680133136002E09F
:10465000002500E00025FFF7D7FA15F0070F0ED070
:104660004FF0500383F31188BFF36F8FBFF34F8F69
:10467000FEE70025EFE70025EDE70025EBE72846FC
:1046800038BD00BFDC0F0020C80F0020D80F00206D
:10469000E00F0020D40F0020D00F0020002834D0DD
:1046A00038B50446A0F1080550F8043C174A1268D2
:1046B000134208D14FF0500383F31188BFF36F8F7B
:1046C000BFF34F8FFEE750F8081C41B14FF0500385
:1046D00083F31188BFF36F8FBFF34F8FFEE723EA99
:1046E000020340F8043CFFF7F5F954F8041C084AAB
:1046F00013680B4413602846FFF71CFF054A136834
:1047000001331360FFF780FA38BD7047C80F0020EF
:10471000D80F0020CC0F002082B0002301930D4B56
:104720001B68B3F1FF3F08D04FF0500383F31188AB
:10473000BFF36F8FBFF34F8FFEE74FF0500383F34C
:104740001188BFF36F8FBFF34F8F019B002BFCD0FD
:1047500002B070471400002008480068006880F329
:1047600008884FF0000080F3148862B661B6BFF38A
:104770004F8FBFF36F8F00DF00BF000008ED00E038
:10478000DFF80C00016841F470010160704700001F
:1047900088ED00E04FF0807340F8043C21F0010107
:1047A00040F8081C054B40F80C3C40F8202C6FF0FA
:1047B000020340F8243C4438704700BF1947000802
:1047C000074B19680868B0E8F04F80F30988BFF319
:1047D0006F8F4FF0000080F311887047AFF30080B7
:1047E000E00700204FF0500383F31188BFF36F8F71
:1047F000BFF34F8F0B4A136801331360012B00D0B6
:1048000070474FF0E023D3F8043D13F0FF0FF7D0CB
:104810004FF0500383F31188BFF36F8FBFF34F8FB7
:10482000FEE700BF14000020094B1B6843B94FF09E
:10483000500383F31188BFF36F8FBFF34F8FFEE7F1
:10484000013B034A13600BB983F31188704700BF23
:104850001400002000000000000000000000000024
:10486000EFF30980BFF36F8F154B1A681EF0100F1E
:1048700008BF20ED108A20E9F04F10602DE90900F3
:104880004FF0500080F31188BFF34F8FBFF36F8F4D
:10489000FFF75CFA4FF0000080F3118809BC19683B
:1048A0000868B0E8F04F1EF0100F08BFB0EC108A97
:1048B00080F30988BFF36F8F704700BFAFF30080AC
:1048C000E007002008B54FF0500383F31188BFF3D1
:1048D0006F8FBFF34F8FFFF70BF928B14FF0E02335
:1048E0004FF08052C3F8042D002383F3118808BDD4
:1048F0004FF0E022002313619361054B1B680549CB
:10490000A1FB03139B09013B53610723136170470C
:1049100010000020D34D62104FF0E023D3F8002D9B
:104920003D4B9A421CD04FF0E023D3F8002D3B4B77
:104930009A421ED030B583B0394B1A78D2B2019268
:10494000FF221A701B78DBB28DF803309DF803301C
:1049500003F05003334A1370334B07221A601BE0F5
:104960004FF0500383F31188BFF36F8FBFF34F8F66
:10497000FEE74FF0500383F31188BFF36F8FBFF34F
:104980004F8FFEE7284A1368013B13609DF8033000
:104990005B00DBB28DF803309DF8033013F0800F1D
:1049A000F0D1214B1B68032B08D04FF0500383F349
:1049B0001188BFF36F8FBFF34F8FFEE71B021A4AB8
:1049C000136003F4E0631360019BDBB2144A1370BD
:1049D0004FF0E024D4F8203D43F47003C4F8203DA8
:1049E000D4F8203D43F07043C4F8203DFFF780FF2A
:1049F00000250E4B1D60FFF7C3FED4F8343F43F093
:104A00004043C4F8343FFFF7A7FEFFF79FF9FFF7D5
:104A100083FE284603B030BD71C20F4170C20F4102
:104A200000E400E0EC1B0020E81B00201400002044
:104A3000EFF305830F2B0ED9114A9A5C114B1B78AB
:104A40009A4208D24FF0500383F31188BFF36F8F5F
:104A5000BFF34F8FFEE74FF0E023D3F80C3D03F494
:104A6000E063094A1268934208D94FF0500383F378
:104A70001188BFF36F8FBFF34F8FFEE7704700BF02
:104A8000F0E300E0EC1B0020E81B002010B59AB01A
:104A900008AC48220021204600F079F80023019359
:104AA0000293039304930593069307931A490A68A4
:104AB00022F4C06242F400720A600A6802F4C06222
:104AC0000092009A232208924FF4803209924FF408
:104AD00080720B9201220F9240220C921093A0221E
:104AE000119213932046FCF74DFC78B96F23019384
:104AF00000230293039304930593069307930121E4
:104B000001A8FCF7CBFF20B91AB010BDFBF7F0FBF2
:104B1000ECE7FBF7EDFBF7E700040058D458C4506E
:104B20000433C4188C42F9D37047036004308842C0
:104B3000FBD370470C488546FEF7C0F90B480C497B
:104B40000C4A0023FFF7EDFF0B480C490C4A0023E9
:104B5000FFF7E7FF0B480C490023FFF7E8FF00F0E1
:104B60001FF8FBF73BFDFEE70000032008000020D4
:104B70001800002038500008000003200000032027
:104B80004850000818000020F01B0020FEE70244F7
:104B90000346934200D1704703F8011BF9E7000078
:104BA00070B50D4B0D4D5B1B9C100026A64209D124
:104BB00000F0A4F90A4D0B4B5B1B9C100026A6428B
:104BC00005D170BD55F8043B98470136EEE755F81E
:104BD000043B98470136F2E7305000083050000897
:104BE00030500008345000080A44914200F1FF336D
:104BF00000D1704710B511F8014B03F8014F9142F5
:104C0000F9D110BD2DE9F047089D0F4604468C46AA
:104C1000002B48D18A42164661D9B2FA82F34BB1D1
:104C2000C3F1200201FA03FC20FA02F29E4042EA9C
:104C30000C0C9C404FEA164EB7B2BCFBFEF1220CA6
:104C40000EFB11CC42EA0C4201FB07F0904209D95D
:104C5000B21801F1FF3C80F0EE80904240F2EB8010
:104C600002393244121AA4B2B2FBFEF00EFB10223B
:104C700044EA024400FB07F7A74209D9341900F1BE
:104C8000FF3280F0DA80A74240F2D7803444023805
:104C900040EA0140E41B00211DB1DC400023C5E9CE
:104CA0000043BDE8F0878B4206D90DB1C5E900018C
:104CB00000210846BDE8F087B3FA83F1002948D106
:104CC000BB4202D3824200F20781841A67EB0302DF
:104CD00001209446002DE4D0C5E9004CE1E7002A0C
:104CE00000F09280B2FA82F3002B40F0A8808A1A7A
:104CF0004FEA164E1FFA86FC0121200CB2FBFEF78C
:104D00000EFB172240EA02420CFB07F0904207D943
:104D1000B21807F1FF3802D2904200F2E280474613
:104D2000121AA4B2B2FBFEF00EFB102244EA0244B7
:104D30000CFB00FCA44507D9341900F1FF3202D264
:104D4000A44500F2CB801046A4EB0C0440EA0740D7
:104D5000A2E7C1F120068B4022FA06FC4CEA030CC4
:104D600007FA01F420FA06F3F7404FEA1C492343FF
:104D700000FA01F81FFA8CFEB7FBF9F01C0C09FBD6
:104D8000107744EA074400FB0EF7A74202FA01F24B
:104D90000AD91CEB040400F1FF3A80F09B80A74283
:104DA00040F2988002386444E41B9FB2B4FBF9F3EC
:104DB00009FB134447EA044403FB0EFEA64509D948
:104DC0001CEB040403F1FF3780F08280A6457FD9F5
:104DD000023B644443EA0040A4EB0E04A0FB02E75C
:104DE000BC427346B94663D360D05DB1B8EB0302F1
:104DF00064EB090404FA06F622FA01F31E43CC40E0
:104E0000C5E9006400214CE76208480842EAC17124
:104E10000B0C43EA00438AB242EA0342B3FBF6F1C9
:104E2000E407B4463746B6461F23B0FBF6F0D21B64
:104E300041EA004161E7614614E7104628E7C3F103
:104E4000200120FA01F29E4027FA01F19F403A43E7
:104E50004FEA164E1FFA86FCB1FBFEF70EFB171049
:104E6000110C41EA004107FB0CF8884504FA03F4F1
:104E70003AD9711807F1FF3001D288451FD8A1EB4C
:104E80000801B1FBFEF808FB0CF70EFB181192B2FB
:104E900042EA0142BA422FD2B21808F1FF31C6D21B
:104EA000BA42C4D2A8F102013244C0E7F0459CD214
:104EB000BEEB020367EB0C070138B94695E7A6EB9A
:104EC00008084144B81EB1FBFEF808FB0CF7DCE70C
:104ED0003B467FE7504667E70846FBE63444023826
:104EE00032E7023F32441BE7A1EB08013846B1FB31
:104EF000FEF808FB0CF7C8E7414698E7F8B500BF95
:104F0000F8BC08BC9E467047F8B500BFF8BC08BCAA
:044F10009E46704702
:104F140012000000240000003600000040000000E1
:104F2400060000000C00000010000000000000005B
:104F3400010000000200000003000000426C696EE2
:104F44006B00000049444C4500000000546D725150
:104F540000000000546D72205376630001000200CB
:104F64000400060008000A000C00100020004000A5
:104F74008000000108040204080101010101010389
:104F840007010000A0860100400D0300801A0600FE
:104F940000350C0040420F0080841E0000093D00D3
:104FA40000127A000024F40000366E010048E80183
:104FB400006CDC02000000000000000000000000A3
:104FC40000000000000000000000000000000000DD
:104FD40000000000010000000200000003000000C7
:104FE40004000000010000000300000005000000B0
:104FF4000100000001000000060000000A0000009B
:10500400200000000200000004000000080000006E
:1050140010000000400000008000000000010000BB
:045024000002000086
:08502800DCFBFF7F010000002A
:04503000DD01000896
:04503400B5010008BA
:10503800010000001000000000093D00AAAAAAAA69
:0400000508004B356F
:00000001FF
